{
    "abi": [
        {
            "type": "constructor",
            "inputs": [],
            "stateMutability": "nonpayable"
        },
        {
            "type": "receive",
            "stateMutability": "payable"
        },
        {
            "type": "function",
            "name": "BridgeFinalizeERC20",
            "inputs": [
                {
                    "name": "sourceChainId",
                    "type": "uint256",
                    "internalType": "uint256"
                },
                {
                    "name": "destChainId",
                    "type": "uint256",
                    "internalType": "uint256"
                },
                {
                    "name": "from",
                    "type": "address",
                    "internalType": "address"
                },
                {
                    "name": "to",
                    "type": "address",
                    "internalType": "address"
                },
                {
                    "name": "sourceTokenAddress",
                    "type": "address",
                    "internalType": "address"
                },
                {
                    "name": "destTokenAddress",
                    "type": "address",
                    "internalType": "address"
                },
                {
                    "name": "amount",
                    "type": "uint256",
                    "internalType": "uint256"
                },
                {
                    "name": "_fee",
                    "type": "uint256",
                    "internalType": "uint256"
                },
                {
                    "name": "_nonce",
                    "type": "uint256",
                    "internalType": "uint256"
                }
            ],
            "outputs": [
                {
                    "name": "",
                    "type": "bool",
                    "internalType": "bool"
                }
            ],
            "stateMutability": "nonpayable"
        },
        {
            "type": "function",
            "name": "BridgeFinalizeETH",
            "inputs": [
                {
                    "name": "sourceChainId",
                    "type": "uint256",
                    "internalType": "uint256"
                },
                {
                    "name": "destChainId",
                    "type": "uint256",
                    "internalType": "uint256"
                },
                {
                    "name": "from",
                    "type": "address",
                    "internalType": "address"
                },
                {
                    "name": "to",
                    "type": "address",
                    "internalType": "address"
                },
                {
                    "name": "amount",
                    "type": "uint256",
                    "internalType": "uint256"
                },
                {
                    "name": "_fee",
                    "type": "uint256",
                    "internalType": "uint256"
                },
                {
                    "name": "_nonce",
                    "type": "uint256",
                    "internalType": "uint256"
                }
            ],
            "outputs": [
                {
                    "name": "",
                    "type": "bool",
                    "internalType": "bool"
                }
            ],
            "stateMutability": "payable"
        },
        {
            "type": "function",
            "name": "BridgeInitiateERC20",
            "inputs": [
                {
                    "name": "sourceChainId",
                    "type": "uint256",
                    "internalType": "uint256"
                },
                {
                    "name": "destChainId",
                    "type": "uint256",
                    "internalType": "uint256"
                },
                {
                    "name": "to",
                    "type": "address",
                    "internalType": "address"
                },
                {
                    "name": "sourceTokenAddress",
                    "type": "address",
                    "internalType": "address"
                },
                {
                    "name": "destTokenAddress",
                    "type": "address",
                    "internalType": "address"
                },
                {
                    "name": "value",
                    "type": "uint256",
                    "internalType": "uint256"
                }
            ],
            "outputs": [
                {
                    "name": "",
                    "type": "bool",
                    "internalType": "bool"
                }
            ],
            "stateMutability": "nonpayable"
        },
        {
            "type": "function",
            "name": "BridgeInitiateETH",
            "inputs": [
                {
                    "name": "sourceChainId",
                    "type": "uint256",
                    "internalType": "uint256"
                },
                {
                    "name": "destChainId",
                    "type": "uint256",
                    "internalType": "uint256"
                },
                {
                    "name": "to",
                    "type": "address",
                    "internalType": "address"
                }
            ],
            "outputs": [
                {
                    "name": "",
                    "type": "bool",
                    "internalType": "bool"
                }
            ],
            "stateMutability": "payable"
        },
        {
            "type": "function",
            "name": "ClaimAllReward",
            "inputs": [],
            "outputs": [],
            "stateMutability": "nonpayable"
        },
        {
            "type": "function",
            "name": "ClaimbyID",
            "inputs": [
                {
                    "name": "i",
                    "type": "uint256",
                    "internalType": "uint256"
                }
            ],
            "outputs": [],
            "stateMutability": "nonpayable"
        },
        {
            "type": "function",
            "name": "CompletePoolAndNew",
            "inputs": [
                {
                    "name": "CompletePools",
                    "type": "tuple[]",
                    "internalType": "struct IPoolManager.Pool[]",
                    "components": [
                        {
                            "name": "startTimestamp",
                            "type": "uint32",
                            "internalType": "uint32"
                        },
                        {
                            "name": "endTimestamp",
                            "type": "uint32",
                            "internalType": "uint32"
                        },
                        {
                            "name": "token",
                            "type": "address",
                            "internalType": "address"
                        },
                        {
                            "name": "TotalAmount",
                            "type": "uint256",
                            "internalType": "uint256"
                        },
                        {
                            "name": "TotalFee",
                            "type": "uint256",
                            "internalType": "uint256"
                        },
                        {
                            "name": "TotalFeeClaimed",
                            "type": "uint256",
                            "internalType": "uint256"
                        },
                        {
                            "name": "IsCompleted",
                            "type": "bool",
                            "internalType": "bool"
                        }
                    ]
                }
            ],
            "outputs": [],
            "stateMutability": "payable"
        },
        {
            "type": "function",
            "name": "DepositAndStakingERC20",
            "inputs": [
                {
                    "name": "_token",
                    "type": "address",
                    "internalType": "address"
                },
                {
                    "name": "_amount",
                    "type": "uint256",
                    "internalType": "uint256"
                }
            ],
            "outputs": [],
            "stateMutability": "nonpayable"
        },
        {
            "type": "function",
            "name": "DepositAndStakingETH",
            "inputs": [],
            "outputs": [],
            "stateMutability": "payable"
        },
        {
            "type": "function",
            "name": "ETHAddress",
            "inputs": [],
            "outputs": [
                {
                    "name": "",
                    "type": "address",
                    "internalType": "address"
                }
            ],
            "stateMutability": "view"
        },
        {
            "type": "function",
            "name": "FeePoolValue",
            "inputs": [
                {
                    "name": "",
                    "type": "address",
                    "internalType": "address"
                }
            ],
            "outputs": [
                {
                    "name": "",
                    "type": "uint256",
                    "internalType": "uint256"
                }
            ],
            "stateMutability": "view"
        },
        {
            "type": "function",
            "name": "FundingPoolBalance",
            "inputs": [
                {
                    "name": "",
                    "type": "address",
                    "internalType": "address"
                }
            ],
            "outputs": [
                {
                    "name": "",
                    "type": "uint256",
                    "internalType": "uint256"
                }
            ],
            "stateMutability": "view"
        },
        {
            "type": "function",
            "name": "IsSupportToken",
            "inputs": [
                {
                    "name": "",
                    "type": "address",
                    "internalType": "address"
                }
            ],
            "outputs": [
                {
                    "name": "",
                    "type": "bool",
                    "internalType": "bool"
                }
            ],
            "stateMutability": "view"
        },
        {
            "type": "function",
            "name": "IsSupportedChainId",
            "inputs": [
                {
                    "name": "",
                    "type": "uint256",
                    "internalType": "uint256"
                }
            ],
            "outputs": [
                {
                    "name": "",
                    "type": "bool",
                    "internalType": "bool"
                }
            ],
            "stateMutability": "view"
        },
        {
            "type": "function",
            "name": "MinStakeAmount",
            "inputs": [
                {
                    "name": "",
                    "type": "address",
                    "internalType": "address"
                }
            ],
            "outputs": [
                {
                    "name": "",
                    "type": "uint256",
                    "internalType": "uint256"
                }
            ],
            "stateMutability": "view"
        },
        {
            "type": "function",
            "name": "MinTransferAmount",
            "inputs": [],
            "outputs": [
                {
                    "name": "",
                    "type": "uint256",
                    "internalType": "uint256"
                }
            ],
            "stateMutability": "view"
        },
        {
            "type": "function",
            "name": "PerFee",
            "inputs": [],
            "outputs": [
                {
                    "name": "",
                    "type": "uint256",
                    "internalType": "uint256"
                }
            ],
            "stateMutability": "view"
        },
        {
            "type": "function",
            "name": "Pools",
            "inputs": [
                {
                    "name": "",
                    "type": "address",
                    "internalType": "address"
                },
                {
                    "name": "",
                    "type": "uint256",
                    "internalType": "uint256"
                }
            ],
            "outputs": [
                {
                    "name": "startTimestamp",
                    "type": "uint32",
                    "internalType": "uint32"
                },
                {
                    "name": "endTimestamp",
                    "type": "uint32",
                    "internalType": "uint32"
                },
                {
                    "name": "token",
                    "type": "address",
                    "internalType": "address"
                },
                {
                    "name": "TotalAmount",
                    "type": "uint256",
                    "internalType": "uint256"
                },
                {
                    "name": "TotalFee",
                    "type": "uint256",
                    "internalType": "uint256"
                },
                {
                    "name": "TotalFeeClaimed",
                    "type": "uint256",
                    "internalType": "uint256"
                },
                {
                    "name": "IsCompleted",
                    "type": "bool",
                    "internalType": "bool"
                }
            ],
            "stateMutability": "view"
        },
        {
            "type": "function",
            "name": "QuickSendAssertToUser",
            "inputs": [
                {
                    "name": "_token",
                    "type": "address",
                    "internalType": "address"
                },
                {
                    "name": "to",
                    "type": "address",
                    "internalType": "address"
                },
                {
                    "name": "_amount",
                    "type": "uint256",
                    "internalType": "uint256"
                }
            ],
            "outputs": [],
            "stateMutability": "nonpayable"
        },
        {
            "type": "function",
            "name": "SupportTokens",
            "inputs": [
                {
                    "name": "",
                    "type": "uint256",
                    "internalType": "uint256"
                }
            ],
            "outputs": [
                {
                    "name": "",
                    "type": "address",
                    "internalType": "address"
                }
            ],
            "stateMutability": "view"
        },
        {
            "type": "function",
            "name": "Users",
            "inputs": [
                {
                    "name": "",
                    "type": "address",
                    "internalType": "address"
                },
                {
                    "name": "",
                    "type": "uint256",
                    "internalType": "uint256"
                }
            ],
            "outputs": [
                {
                    "name": "isWithdrawed",
                    "type": "bool",
                    "internalType": "bool"
                },
                {
                    "name": "token",
                    "type": "address",
                    "internalType": "address"
                },
                {
                    "name": "StartPoolId",
                    "type": "uint256",
                    "internalType": "uint256"
                },
                {
                    "name": "EndPoolId",
                    "type": "uint256",
                    "internalType": "uint256"
                },
                {
                    "name": "Amount",
                    "type": "uint256",
                    "internalType": "uint256"
                }
            ],
            "stateMutability": "view"
        },
        {
            "type": "function",
            "name": "WithdrawAll",
            "inputs": [],
            "outputs": [],
            "stateMutability": "nonpayable"
        },
        {
            "type": "function",
            "name": "WithdrawByID",
            "inputs": [
                {
                    "name": "i",
                    "type": "uint256",
                    "internalType": "uint256"
                }
            ],
            "outputs": [],
            "stateMutability": "nonpayable"
        },
        {
            "type": "function",
            "name": "WithdrawPoolManagerAssetTo",
            "inputs": [
                {
                    "name": "_token",
                    "type": "address",
                    "internalType": "address"
                },
                {
                    "name": "to",
                    "type": "address",
                    "internalType": "address"
                },
                {
                    "name": "_amount",
                    "type": "uint256",
                    "internalType": "uint256"
                }
            ],
            "outputs": [],
            "stateMutability": "nonpayable"
        },
        {
            "type": "function",
            "name": "assetBalanceMessager",
            "inputs": [],
            "outputs": [
                {
                    "name": "",
                    "type": "address",
                    "internalType": "address"
                }
            ],
            "stateMutability": "view"
        },
        {
            "type": "function",
            "name": "depositErc20ToBridge",
            "inputs": [
                {
                    "name": "tokenAddress",
                    "type": "address",
                    "internalType": "address"
                },
                {
                    "name": "amount",
                    "type": "uint256",
                    "internalType": "uint256"
                }
            ],
            "outputs": [
                {
                    "name": "",
                    "type": "bool",
                    "internalType": "bool"
                }
            ],
            "stateMutability": "nonpayable"
        },
        {
            "type": "function",
            "name": "depositEthToBridge",
            "inputs": [],
            "outputs": [
                {
                    "name": "",
                    "type": "bool",
                    "internalType": "bool"
                }
            ],
            "stateMutability": "payable"
        },
        {
            "type": "function",
            "name": "fetchFundingPoolBalance",
            "inputs": [
                {
                    "name": "token",
                    "type": "address",
                    "internalType": "address"
                }
            ],
            "outputs": [
                {
                    "name": "",
                    "type": "uint256",
                    "internalType": "uint256"
                }
            ],
            "stateMutability": "view"
        },
        {
            "type": "function",
            "name": "getPool",
            "inputs": [
                {
                    "name": "_token",
                    "type": "address",
                    "internalType": "address"
                },
                {
                    "name": "_index",
                    "type": "uint256",
                    "internalType": "uint256"
                }
            ],
            "outputs": [
                {
                    "name": "",
                    "type": "tuple",
                    "internalType": "struct IPoolManager.Pool",
                    "components": [
                        {
                            "name": "startTimestamp",
                            "type": "uint32",
                            "internalType": "uint32"
                        },
                        {
                            "name": "endTimestamp",
                            "type": "uint32",
                            "internalType": "uint32"
                        },
                        {
                            "name": "token",
                            "type": "address",
                            "internalType": "address"
                        },
                        {
                            "name": "TotalAmount",
                            "type": "uint256",
                            "internalType": "uint256"
                        },
                        {
                            "name": "TotalFee",
                            "type": "uint256",
                            "internalType": "uint256"
                        },
                        {
                            "name": "TotalFeeClaimed",
                            "type": "uint256",
                            "internalType": "uint256"
                        },
                        {
                            "name": "IsCompleted",
                            "type": "bool",
                            "internalType": "bool"
                        }
                    ]
                }
            ],
            "stateMutability": "view"
        },
        {
            "type": "function",
            "name": "getPoolLength",
            "inputs": [
                {
                    "name": "_token",
                    "type": "address",
                    "internalType": "address"
                }
            ],
            "outputs": [
                {
                    "name": "",
                    "type": "uint256",
                    "internalType": "uint256"
                }
            ],
            "stateMutability": "view"
        },
        {
            "type": "function",
            "name": "getPrincipal",
            "inputs": [],
            "outputs": [
                {
                    "name": "",
                    "type": "tuple[]",
                    "internalType": "struct IPoolManager.KeyValuePair[]",
                    "components": [
                        {
                            "name": "key",
                            "type": "address",
                            "internalType": "address"
                        },
                        {
                            "name": "value",
                            "type": "uint256",
                            "internalType": "uint256"
                        }
                    ]
                }
            ],
            "stateMutability": "view"
        },
        {
            "type": "function",
            "name": "getReward",
            "inputs": [],
            "outputs": [
                {
                    "name": "",
                    "type": "tuple[]",
                    "internalType": "struct IPoolManager.KeyValuePair[]",
                    "components": [
                        {
                            "name": "key",
                            "type": "address",
                            "internalType": "address"
                        },
                        {
                            "name": "value",
                            "type": "uint256",
                            "internalType": "uint256"
                        }
                    ]
                }
            ],
            "stateMutability": "view"
        },
        {
            "type": "function",
            "name": "getUser",
            "inputs": [
                {
                    "name": "_user",
                    "type": "address",
                    "internalType": "address"
                }
            ],
            "outputs": [
                {
                    "name": "",
                    "type": "tuple[]",
                    "internalType": "struct IPoolManager.User[]",
                    "components": [
                        {
                            "name": "isWithdrawed",
                            "type": "bool",
                            "internalType": "bool"
                        },
                        {
                            "name": "token",
                            "type": "address",
                            "internalType": "address"
                        },
                        {
                            "name": "StartPoolId",
                            "type": "uint256",
                            "internalType": "uint256"
                        },
                        {
                            "name": "EndPoolId",
                            "type": "uint256",
                            "internalType": "uint256"
                        },
                        {
                            "name": "Amount",
                            "type": "uint256",
                            "internalType": "uint256"
                        }
                    ]
                }
            ],
            "stateMutability": "view"
        },
        {
            "type": "function",
            "name": "getUserLength",
            "inputs": [
                {
                    "name": "_user",
                    "type": "address",
                    "internalType": "address"
                }
            ],
            "outputs": [
                {
                    "name": "",
                    "type": "uint256",
                    "internalType": "uint256"
                }
            ],
            "stateMutability": "view"
        },
        {
            "type": "function",
            "name": "initialize",
            "inputs": [
                {
                    "name": "initialOwner",
                    "type": "address",
                    "internalType": "address"
                },
                {
                    "name": "_messageManager",
                    "type": "address",
                    "internalType": "address"
                },
                {
                    "name": "_relayerAddress",
                    "type": "address",
                    "internalType": "address"
                },
                {
                    "name": "_withdrawManager",
                    "type": "address",
                    "internalType": "address"
                }
            ],
            "outputs": [],
            "stateMutability": "nonpayable"
        },
        {
            "type": "function",
            "name": "messageManager",
            "inputs": [],
            "outputs": [
                {
                    "name": "",
                    "type": "address",
                    "internalType": "contract IMessageManager"
                }
            ],
            "stateMutability": "view"
        },
        {
            "type": "function",
            "name": "owner",
            "inputs": [],
            "outputs": [
                {
                    "name": "",
                    "type": "address",
                    "internalType": "address"
                }
            ],
            "stateMutability": "view"
        },
        {
            "type": "function",
            "name": "pause",
            "inputs": [],
            "outputs": [],
            "stateMutability": "nonpayable"
        },
        {
            "type": "function",
            "name": "paused",
            "inputs": [],
            "outputs": [
                {
                    "name": "",
                    "type": "bool",
                    "internalType": "bool"
                }
            ],
            "stateMutability": "view"
        },
        {
            "type": "function",
            "name": "periodTime",
            "inputs": [],
            "outputs": [
                {
                    "name": "",
                    "type": "uint32",
                    "internalType": "uint32"
                }
            ],
            "stateMutability": "view"
        },
        {
            "type": "function",
            "name": "relayerAddress",
            "inputs": [],
            "outputs": [
                {
                    "name": "",
                    "type": "address",
                    "internalType": "address"
                }
            ],
            "stateMutability": "view"
        },
        {
            "type": "function",
            "name": "renounceOwnership",
            "inputs": [],
            "outputs": [],
            "stateMutability": "nonpayable"
        },
        {
            "type": "function",
            "name": "setMinStakeAmount",
            "inputs": [
                {
                    "name": "_token",
                    "type": "address",
                    "internalType": "address"
                },
                {
                    "name": "_amount",
                    "type": "uint256",
                    "internalType": "uint256"
                }
            ],
            "outputs": [],
            "stateMutability": "nonpayable"
        },
        {
            "type": "function",
            "name": "setMinTransferAmount",
            "inputs": [
                {
                    "name": "_MinTransferAmount",
                    "type": "uint256",
                    "internalType": "uint256"
                }
            ],
            "outputs": [],
            "stateMutability": "nonpayable"
        },
        {
            "type": "function",
            "name": "setPerFee",
            "inputs": [
                {
                    "name": "_PerFee",
                    "type": "uint256",
                    "internalType": "uint256"
                }
            ],
            "outputs": [],
            "stateMutability": "nonpayable"
        },
        {
            "type": "function",
            "name": "setSupportERC20Token",
            "inputs": [
                {
                    "name": "ERC20Address",
                    "type": "address",
                    "internalType": "address"
                },
                {
                    "name": "isValid",
                    "type": "bool",
                    "internalType": "bool"
                }
            ],
            "outputs": [],
            "stateMutability": "nonpayable"
        },
        {
            "type": "function",
            "name": "setSupportToken",
            "inputs": [
                {
                    "name": "_token",
                    "type": "address",
                    "internalType": "address"
                },
                {
                    "name": "_isSupport",
                    "type": "bool",
                    "internalType": "bool"
                },
                {
                    "name": "startTimes",
                    "type": "uint32",
                    "internalType": "uint32"
                }
            ],
            "outputs": [],
            "stateMutability": "nonpayable"
        },
        {
            "type": "function",
            "name": "setValidChainId",
            "inputs": [
                {
                    "name": "chainId",
                    "type": "uint256",
                    "internalType": "uint256"
                },
                {
                    "name": "isValid",
                    "type": "bool",
                    "internalType": "bool"
                }
            ],
            "outputs": [],
            "stateMutability": "nonpayable"
        },
        {
            "type": "function",
            "name": "stakingMessageNumber",
            "inputs": [],
            "outputs": [
                {
                    "name": "",
                    "type": "uint256",
                    "internalType": "uint256"
                }
            ],
            "stateMutability": "view"
        },
        {
            "type": "function",
            "name": "transferOwnership",
            "inputs": [
                {
                    "name": "newOwner",
                    "type": "address",
                    "internalType": "address"
                }
            ],
            "outputs": [],
            "stateMutability": "nonpayable"
        },
        {
            "type": "function",
            "name": "unpause",
            "inputs": [],
            "outputs": [],
            "stateMutability": "nonpayable"
        },
        {
            "type": "function",
            "name": "withdrawErc20FromBridge",
            "inputs": [
                {
                    "name": "tokenAddress",
                    "type": "address",
                    "internalType": "address"
                },
                {
                    "name": "withdrawAddress",
                    "type": "address",
                    "internalType": "address"
                },
                {
                    "name": "amount",
                    "type": "uint256",
                    "internalType": "uint256"
                }
            ],
            "outputs": [
                {
                    "name": "",
                    "type": "bool",
                    "internalType": "bool"
                }
            ],
            "stateMutability": "nonpayable"
        },
        {
            "type": "function",
            "name": "withdrawEthFromBridge",
            "inputs": [
                {
                    "name": "withdrawAddress",
                    "type": "address",
                    "internalType": "address payable"
                },
                {
                    "name": "amount",
                    "type": "uint256",
                    "internalType": "uint256"
                }
            ],
            "outputs": [
                {
                    "name": "",
                    "type": "bool",
                    "internalType": "bool"
                }
            ],
            "stateMutability": "payable"
        },
        {
            "type": "function",
            "name": "withdrawManager",
            "inputs": [],
            "outputs": [
                {
                    "name": "",
                    "type": "address",
                    "internalType": "address"
                }
            ],
            "stateMutability": "view"
        },
        {
            "type": "event",
            "name": "ClaimReward",
            "inputs": [
                {
                    "name": "_user",
                    "type": "address",
                    "indexed": false,
                    "internalType": "address"
                },
                {
                    "name": "startPoolId",
                    "type": "uint256",
                    "indexed": false,
                    "internalType": "uint256"
                },
                {
                    "name": "EndPoolId",
                    "type": "uint256",
                    "indexed": false,
                    "internalType": "uint256"
                },
                {
                    "name": "chainId",
                    "type": "uint256",
                    "indexed": false,
                    "internalType": "uint256"
                },
                {
                    "name": "_token",
                    "type": "address",
                    "indexed": false,
                    "internalType": "address"
                },
                {
                    "name": "Reward",
                    "type": "uint256",
                    "indexed": false,
                    "internalType": "uint256"
                }
            ],
            "anonymous": false
        },
        {
            "type": "event",
            "name": "CompletePoolEvent",
            "inputs": [
                {
                    "name": "token",
                    "type": "address",
                    "indexed": true,
                    "internalType": "address"
                },
                {
                    "name": "poolIndex",
                    "type": "uint256",
                    "indexed": false,
                    "internalType": "uint256"
                },
                {
                    "name": "chainId",
                    "type": "uint256",
                    "indexed": false,
                    "internalType": "uint256"
                }
            ],
            "anonymous": false
        },
        {
            "type": "event",
            "name": "DepositToken",
            "inputs": [
                {
                    "name": "tokenAddress",
                    "type": "address",
                    "indexed": true,
                    "internalType": "address"
                },
                {
                    "name": "sender",
                    "type": "address",
                    "indexed": true,
                    "internalType": "address"
                },
                {
                    "name": "amount",
                    "type": "uint256",
                    "indexed": false,
                    "internalType": "uint256"
                }
            ],
            "anonymous": false
        },
        {
            "type": "event",
            "name": "FinalizeERC20",
            "inputs": [
                {
                    "name": "sourceChainId",
                    "type": "uint256",
                    "indexed": false,
                    "internalType": "uint256"
                },
                {
                    "name": "destChainId",
                    "type": "uint256",
                    "indexed": false,
                    "internalType": "uint256"
                },
                {
                    "name": "sourceTokenAddress",
                    "type": "address",
                    "indexed": false,
                    "internalType": "address"
                },
                {
                    "name": "destTokenAddress",
                    "type": "address",
                    "indexed": false,
                    "internalType": "address"
                },
                {
                    "name": "from",
                    "type": "address",
                    "indexed": true,
                    "internalType": "address"
                },
                {
                    "name": "to",
                    "type": "address",
                    "indexed": true,
                    "internalType": "address"
                },
                {
                    "name": "value",
                    "type": "uint256",
                    "indexed": false,
                    "internalType": "uint256"
                }
            ],
            "anonymous": false
        },
        {
            "type": "event",
            "name": "FinalizeETH",
            "inputs": [
                {
                    "name": "sourceChainId",
                    "type": "uint256",
                    "indexed": false,
                    "internalType": "uint256"
                },
                {
                    "name": "destChainId",
                    "type": "uint256",
                    "indexed": false,
                    "internalType": "uint256"
                },
                {
                    "name": "from",
                    "type": "address",
                    "indexed": true,
                    "internalType": "address"
                },
                {
                    "name": "to",
                    "type": "address",
                    "indexed": true,
                    "internalType": "address"
                },
                {
                    "name": "value",
                    "type": "uint256",
                    "indexed": false,
                    "internalType": "uint256"
                }
            ],
            "anonymous": false
        },
        {
            "type": "event",
            "name": "Initialized",
            "inputs": [
                {
                    "name": "version",
                    "type": "uint64",
                    "indexed": false,
                    "internalType": "uint64"
                }
            ],
            "anonymous": false
        },
        {
            "type": "event",
            "name": "InitiateERC20",
            "inputs": [
                {
                    "name": "sourceChainId",
                    "type": "uint256",
                    "indexed": false,
                    "internalType": "uint256"
                },
                {
                    "name": "destChainId",
                    "type": "uint256",
                    "indexed": false,
                    "internalType": "uint256"
                },
                {
                    "name": "sourceTokenAddress",
                    "type": "address",
                    "indexed": false,
                    "internalType": "address"
                },
                {
                    "name": "destTokenAddress",
                    "type": "address",
                    "indexed": false,
                    "internalType": "address"
                },
                {
                    "name": "from",
                    "type": "address",
                    "indexed": true,
                    "internalType": "address"
                },
                {
                    "name": "to",
                    "type": "address",
                    "indexed": true,
                    "internalType": "address"
                },
                {
                    "name": "value",
                    "type": "uint256",
                    "indexed": false,
                    "internalType": "uint256"
                }
            ],
            "anonymous": false
        },
        {
            "type": "event",
            "name": "InitiateETH",
            "inputs": [
                {
                    "name": "sourceChainId",
                    "type": "uint256",
                    "indexed": false,
                    "internalType": "uint256"
                },
                {
                    "name": "destChainId",
                    "type": "uint256",
                    "indexed": false,
                    "internalType": "uint256"
                },
                {
                    "name": "from",
                    "type": "address",
                    "indexed": true,
                    "internalType": "address"
                },
                {
                    "name": "to",
                    "type": "address",
                    "indexed": true,
                    "internalType": "address"
                },
                {
                    "name": "value",
                    "type": "uint256",
                    "indexed": false,
                    "internalType": "uint256"
                }
            ],
            "anonymous": false
        },
        {
            "type": "event",
            "name": "OwnershipTransferred",
            "inputs": [
                {
                    "name": "previousOwner",
                    "type": "address",
                    "indexed": true,
                    "internalType": "address"
                },
                {
                    "name": "newOwner",
                    "type": "address",
                    "indexed": true,
                    "internalType": "address"
                }
            ],
            "anonymous": false
        },
        {
            "type": "event",
            "name": "Paused",
            "inputs": [
                {
                    "name": "account",
                    "type": "address",
                    "indexed": false,
                    "internalType": "address"
                }
            ],
            "anonymous": false
        },
        {
            "type": "event",
            "name": "SetMinStakeAmountEvent",
            "inputs": [
                {
                    "name": "token",
                    "type": "address",
                    "indexed": true,
                    "internalType": "address"
                },
                {
                    "name": "amount",
                    "type": "uint256",
                    "indexed": false,
                    "internalType": "uint256"
                },
                {
                    "name": "chainId",
                    "type": "uint256",
                    "indexed": false,
                    "internalType": "uint256"
                }
            ],
            "anonymous": false
        },
        {
            "type": "event",
            "name": "SetSupportTokenEvent",
            "inputs": [
                {
                    "name": "token",
                    "type": "address",
                    "indexed": true,
                    "internalType": "address"
                },
                {
                    "name": "isSupport",
                    "type": "bool",
                    "indexed": false,
                    "internalType": "bool"
                },
                {
                    "name": "chainId",
                    "type": "uint256",
                    "indexed": false,
                    "internalType": "uint256"
                }
            ],
            "anonymous": false
        },
        {
            "type": "event",
            "name": "StakingETHEvent",
            "inputs": [
                {
                    "name": "user",
                    "type": "address",
                    "indexed": true,
                    "internalType": "address"
                },
                {
                    "name": "chainId",
                    "type": "uint256",
                    "indexed": false,
                    "internalType": "uint256"
                },
                {
                    "name": "amount",
                    "type": "uint256",
                    "indexed": false,
                    "internalType": "uint256"
                }
            ],
            "anonymous": false
        },
        {
            "type": "event",
            "name": "StarkingERC20Event",
            "inputs": [
                {
                    "name": "user",
                    "type": "address",
                    "indexed": true,
                    "internalType": "address"
                },
                {
                    "name": "token",
                    "type": "address",
                    "indexed": true,
                    "internalType": "address"
                },
                {
                    "name": "chainId",
                    "type": "uint256",
                    "indexed": false,
                    "internalType": "uint256"
                },
                {
                    "name": "amount",
                    "type": "uint256",
                    "indexed": false,
                    "internalType": "uint256"
                }
            ],
            "anonymous": false
        },
        {
            "type": "event",
            "name": "Unpaused",
            "inputs": [
                {
                    "name": "account",
                    "type": "address",
                    "indexed": false,
                    "internalType": "address"
                }
            ],
            "anonymous": false
        },
        {
            "type": "event",
            "name": "Withdraw",
            "inputs": [
                {
                    "name": "_user",
                    "type": "address",
                    "indexed": false,
                    "internalType": "address"
                },
                {
                    "name": "startPoolId",
                    "type": "uint256",
                    "indexed": false,
                    "internalType": "uint256"
                },
                {
                    "name": "EndPoolId",
                    "type": "uint256",
                    "indexed": false,
                    "internalType": "uint256"
                },
                {
                    "name": "chainId",
                    "type": "uint256",
                    "indexed": false,
                    "internalType": "uint256"
                },
                {
                    "name": "_token",
                    "type": "address",
                    "indexed": false,
                    "internalType": "address"
                },
                {
                    "name": "Amount",
                    "type": "uint256",
                    "indexed": false,
                    "internalType": "uint256"
                },
                {
                    "name": "Reward",
                    "type": "uint256",
                    "indexed": false,
                    "internalType": "uint256"
                }
            ],
            "anonymous": false
        },
        {
            "type": "event",
            "name": "WithdrawToken",
            "inputs": [
                {
                    "name": "tokenAddress",
                    "type": "address",
                    "indexed": true,
                    "internalType": "address"
                },
                {
                    "name": "sender",
                    "type": "address",
                    "indexed": false,
                    "internalType": "address"
                },
                {
                    "name": "withdrawAddress",
                    "type": "address",
                    "indexed": false,
                    "internalType": "address"
                },
                {
                    "name": "amount",
                    "type": "uint256",
                    "indexed": false,
                    "internalType": "uint256"
                }
            ],
            "anonymous": false
        },
        {
            "type": "error",
            "name": "AlreadyClaimed",
            "inputs": []
        },
        {
            "type": "error",
            "name": "ChainIdIsNotSupported",
            "inputs": [
                {
                    "name": "id",
                    "type": "uint256",
                    "internalType": "uint256"
                }
            ]
        },
        {
            "type": "error",
            "name": "ChainIdNotSupported",
            "inputs": [
                {
                    "name": "chainId",
                    "type": "uint256",
                    "internalType": "uint256"
                }
            ]
        },
        {
            "type": "error",
            "name": "EnforcedPause",
            "inputs": []
        },
        {
            "type": "error",
            "name": "ErrorBlockChain",
            "inputs": []
        },
        {
            "type": "error",
            "name": "ExpectedPause",
            "inputs": []
        },
        {
            "type": "error",
            "name": "InvalidInitialization",
            "inputs": []
        },
        {
            "type": "error",
            "name": "LessThanMinStakeAmount",
            "inputs": [
                {
                    "name": "minAmount",
                    "type": "uint256",
                    "internalType": "uint256"
                },
                {
                    "name": "providedAmount",
                    "type": "uint256",
                    "internalType": "uint256"
                }
            ]
        },
        {
            "type": "error",
            "name": "LessThanMinTransferAmount",
            "inputs": [
                {
                    "name": "MinTransferAmount",
                    "type": "uint256",
                    "internalType": "uint256"
                },
                {
                    "name": "value",
                    "type": "uint256",
                    "internalType": "uint256"
                }
            ]
        },
        {
            "type": "error",
            "name": "LessThanZero",
            "inputs": [
                {
                    "name": "amount",
                    "type": "uint256",
                    "internalType": "uint256"
                }
            ]
        },
        {
            "type": "error",
            "name": "NewPoolIsNotCreate",
            "inputs": [
                {
                    "name": "PoolIndex",
                    "type": "uint256",
                    "internalType": "uint256"
                }
            ]
        },
        {
            "type": "error",
            "name": "NoReward",
            "inputs": []
        },
        {
            "type": "error",
            "name": "NotEnoughETH",
            "inputs": []
        },
        {
            "type": "error",
            "name": "NotEnoughToken",
            "inputs": [
                {
                    "name": "ERC20Address",
                    "type": "address",
                    "internalType": "address"
                }
            ]
        },
        {
            "type": "error",
            "name": "NotInitializing",
            "inputs": []
        },
        {
            "type": "error",
            "name": "OutOfRange",
            "inputs": [
                {
                    "name": "PoolId",
                    "type": "uint256",
                    "internalType": "uint256"
                },
                {
                    "name": "PoolLength",
                    "type": "uint256",
                    "internalType": "uint256"
                }
            ]
        },
        {
            "type": "error",
            "name": "OwnableInvalidOwner",
            "inputs": [
                {
                    "name": "owner",
                    "type": "address",
                    "internalType": "address"
                }
            ]
        },
        {
            "type": "error",
            "name": "OwnableUnauthorizedAccount",
            "inputs": [
                {
                    "name": "account",
                    "type": "address",
                    "internalType": "address"
                }
            ]
        },
        {
            "type": "error",
            "name": "PoolIsCompleted",
            "inputs": [
                {
                    "name": "poolIndex",
                    "type": "uint256",
                    "internalType": "uint256"
                }
            ]
        },
        {
            "type": "error",
            "name": "ReentrancyGuardReentrantCall",
            "inputs": []
        },
        {
            "type": "error",
            "name": "SafeERC20FailedOperation",
            "inputs": [
                {
                    "name": "token",
                    "type": "address",
                    "internalType": "address"
                }
            ]
        },
        {
            "type": "error",
            "name": "TokenIsAlreadySupported",
            "inputs": [
                {
                    "name": "token",
                    "type": "address",
                    "internalType": "address"
                },
                {
                    "name": "isSupported",
                    "type": "bool",
                    "internalType": "bool"
                }
            ]
        },
        {
            "type": "error",
            "name": "TokenIsNotSupported",
            "inputs": [
                {
                    "name": "ERC20Address",
                    "type": "address",
                    "internalType": "address"
                }
            ]
        },
        {
            "type": "error",
            "name": "TransferETHFailed",
            "inputs": []
        },
        {
            "type": "error",
            "name": "Zero",
            "inputs": [
                {
                    "name": "amount",
                    "type": "uint256",
                    "internalType": "uint256"
                }
            ]
        },
        {
            "type": "error",
            "name": "sourceChainIdError",
            "inputs": []
        },
        {
            "type": "error",
            "name": "sourceChainIsDestChainError",
            "inputs": []
        }
    ],
    "bytecode": {
        "object": "0x6080806040523460d2577ff0c57e16840df040f15088dc2f81fe391c3923bec73e23a9662efc9c229c6a005460ff8160401c1660c1576002600160401b03196001600160401b03821601605c575b6040516140d690816100d88239f35b6001600160401b0319166001600160401b039081177ff0c57e16840df040f15088dc2f81fe391c3923bec73e23a9662efc9c229c6a005581527fc7f505b2f371ae2175ee4913f4499e1f2633a7b5936321eed1cdaeb6115181d290602090a13880604d565b63f92ee8a960e01b60005260046000fd5b600080fdfe6080806040526004361015610025575b50361561001b57600080fd5b610023613b45565b005b60003560e01c90816309dc480c1461345c5750806310875a131461343357806313e8544e146133a757806318a7cca81461337e5780631ca2f173146133445780631d31fac0146133205780631f9eda8f14610a565780632c37388b1461309357806331d98b3b14613075578063325e5d43146130495780633338562c14612dbf57806334d34ef514612b6557806334fa7f7014612a315780633d18b912146127b25780633f4ba83a146127225780634663cdc8146126765780634dfaef84146123e05780634eb715421461213d57806352662af3146120fa57806354dc027e146120c05780635a648bc514611d585780635b5b9ea214611c375780635bc65b4014611c065780635c975abb14611bd657806360ba33ff14611b3a578063626417b514611af8578063650c227614611abf5780636b7edb551461196d5780636ec9f812146116c15780636f77926b1461158d578063715018a6146115235780638456cb59146114a25780638da5cb5b1461146c57806396f984e6146112095780639b442380146110245780639c01443214610ffb578063a69bdf1614610eb1578063ab0f9e1914610e45578063b92e639614610e17578063bb8fc7a814610df7578063cb314fab14610d60578063cb4f04ad14610d26578063d0f0c58b14610b4a578063d73f14e514610af8578063da228a9b14610acf578063dac2956814610a90578063dbb0481f14610a56578063dd0c346014610a38578063e20708931461088a578063ec3e9da514610861578063f2fde38b1461083d578063f62a89cf146104d1578063f8c8765e146102c35763f8fcc2aa14610284573861000f565b346102be5760203660031901126102be576001600160a01b036102a5613477565b16600052600e6020526020604060002054604051908152f35b600080fd5b346102be5760803660031901126102be576102dc613477565b6024356001600160a01b038116908190036102be576102f961348d565b6103016134a3565b916000805160206140818339815191525460ff8160401c16159467ffffffffffffffff8216801590816104c9575b60011490816104bf575b1590816104b6575b506104a55767ffffffffffffffff198216600117600080516020614081833981519152556103d09186610478575b50610378613f92565b610380613f92565b600160008051602061406183398151915255621baf8063ffffffff19600054161760005567016345785d8a000060015561271060025560016003556103c3613f92565b6103cb613f92565b613bc8565b6001600160601b0360a01b600554161760055560018060a01b03166001600160601b0360a01b600454161760045560018060a01b03166001600160601b0360a01b600854161760085561041f57005b68ff0000000000000000196000805160206140818339815191525416600080516020614081833981519152557fc7f505b2f371ae2175ee4913f4499e1f2633a7b5936321eed1cdaeb6115181d2602060405160018152a1005b68ffffffffffffffffff19166801000000000000000117600080516020614081833981519152558661036f565b63f92ee8a960e01b60005260046000fd5b90501587610341565b303b159150610339565b87915061032f565b346102be5760203660031901126102be576004356104ed613c3e565b6104f5613c7a565b33600052600f6020526040600020548110156108165733600052600f6020526105228160406000206134cf565b505460081c6001600160a01b03166000818152600e6020526040902054600019810190811161073b576000338152600f602052600361056485604084206134cf565b50015492338252600f602052600161057f86604085206134cf565b50015493338352600f60205260ff61059a87604086206134cf565b5054166108075782855b85811061075157506105b59161389d565b9433600052600f6020526105cd8160406000206134cf565b50600160ff1982541617905533600052600f60205260036105f28260406000206134cf565b50015482600052600e60205261061b600161061187604060002061364e565b50019182546136d3565b9055610628863384613d56565b5033600052600f6020526040600020546106b5575b509061069e9161065c82600080516020614021833981519152976136d3565b6040805133815260208101979097528601949094524660608601526001600160a01b0316608085015260a084019290925260c0830191909152819060e0820190565b0390a1600160008051602061406183398151915255005b336000908152600f6020526040902080549093929190600019810190811161073b576000805160206140218339815191529761071a61065c936107146106ff889561069e9a6134cf565b509133600052600f60205260406000206134cf565b90613ca4565b33600052600f6020526107306040600020613d0c565b97505050909161063d565b634e487b7160e01b600052601160045260246000fd5b905082600052600e602052610778600261076f83604060002061364e565b5001548361386a565b90670de0b6b3a7640000820291808304670de0b6b3a7640000149015171561073b576107d66107c460019386600052600e602052846107bb85604060002061364e565b5001549061387d565b95670de0b6b3a764000087049061389d565b9484600052600e6020526107fd60036107f384604060002061364e565b500191825461389d565b90550183906105a4565b63374c934360e11b8352600483fd5b33600052600f6020526040600020549063abe5c32f60e01b60005260045260245260446000fd5b346102be5760203660031901126102be57610023610859613477565b6103cb613f01565b346102be5760003660031901126102be576008546040516001600160a01b039091168152602090f35b346102be5760603660031901126102be576108a3613477565b6108ab6135f0565b60443563ffffffff8116918282036102be576108d260018060a01b03600454163314613685565b6001600160a01b0384166000818152600a602052604090205490949060ff16610a1d5784600052600a6020526109188260406000209060ff801983541691151516179055565b84600052600e60205260406000209063ffffffff60005416850363ffffffff811161073b577ff37cdf0b5a2a780dfbdbd1bb6f8a3bcdf62c8941ba001debfa56dfd8eab89b6c956040956109ad610a0893610a0d9663ffffffff8a519261097e8461353b565b1682528460208301528b8a8301526000606083015260006080830152600060a0830152600060c08301526136fa565b88600052600e60205263ffffffff6109ce88600020928260005416906136e0565b8851936109da8561353b565b845216602083015288878301526000606083015260006080830152600060a0830152600060c08301526136fa565b613aca565b81519015158152466020820152a2005b508363411befff60e11b600052600452151560245260446000fd5b346102be5760003660031901126102be576020600254604051908152f35b346102be5760203660031901126102be576001600160a01b03610a77613477565b16600052600b6020526020604060002054604051908152f35b346102be5760203660031901126102be576001600160a01b03610ab1613477565b16600052600a602052602060ff604060002054166040519015158152f35b346102be5760003660031901126102be5760206040516000805160206140018339815191528152f35b346102be5760403660031901126102be57610023610b146135f0565b610b2960018060a01b03600454163314613685565b600435600052600960205260406000209060ff801983541691151516179055565b60e03660031901126102be57602435600435610b6461348d565b610b6c6134a3565b60843590610b8560018060a01b03600454163314613685565b468503610d155783600052600960205260ff6040600020541615610d00576001600160a01b031693600080808085895af1610bbe61392c565b5015610cef57600080516020614001833981519152600052600b6020526040600020610beb8382546136d3565b90556005546001600160a01b031692833b156102be5760009361012485926040519687938492630f5c3d0560e31b84528a60048501528760248501526000805160206140018339815191526044850152600080516020614001833981519152606485015260018060a01b031660848401528a60a48401528760c484015260a43560e484015260c4356101048401525af1928315610ce3577f61d99af9dd09bd984d42cc07939d4cba4388e85aa29b3cc88df954e4ca719f3293610cd2575b50604080519485526020850191909152830152309180606081015b0390a3602060405160018152f35b6000610cdd916135a5565b85610ca9565b6040513d6000823e3d90fd5b6389a360eb60e01b60005260046000fd5b83632ef6974160e11b60005260045260246000fd5b631a26aa4d60e21b60005260046000fd5b346102be5760203660031901126102be576001600160a01b03610d47613477565b16600052600f6020526020604060002054604051908152f35b346102be5760403660031901126102be57610d79613477565b60243590610d9260018060a01b03600454163314613685565b8115610de25760407f6559cfa4c9d2d533663fa9b68e86d2bb216ac0d2bf462b0529ab01525dce08379160018060a01b03169283600052600d6020528082600020558151908152466020820152a2005b50637a11cf7560e01b60005260045260246000fd5b60003660031901126102be576020610e0d613b45565b6040519015158152f35b346102be5760203660031901126102be57610e3d60018060a01b03600454163314613685565b600435600155005b346102be5760403660031901126102be57610e5e613477565b610e666135f0565b610e7b60018060a01b03600454163314613685565b6001600160a01b0382166000908152600a60205260409020805460ff191660ff83151516179055610ea857005b61002390613aca565b346102be5760003660031901126102be57600654610ece8161380c565b60005b828110610eea5760405180610ee684826135ff565b0390f35b600090815b33600052600f602052604060002054811015610faf5733600052600f602052610f1c8160406000206134cf565b505460081c6001600160a01b0316610f338361366a565b905460039190911b1c6001600160a01b031614610f55575b6001905b01610eef565b9133600052600f60205260ff610f6f8460406000206134cf565b505416610fa657610f9e60019133600052600f6020526003610f958660406000206134cf565b5001549061389d565b929050610f4b565b91600190610f4f565b50600191610fbc8261366a565b848060a01b0391549060031b1c169060405191610fd88361356d565b82526020820152610fe982856136bf565b52610ff481846136bf565b5001610ed1565b346102be5760003660031901126102be576007546040516001600160a01b039091168152602090f35b60603660031901126102be5760243560043561103e61348d565b611046613c3e565b468203610d155782600052600960205260ff60406000205416156111f4576001548034106111dc5750600080516020614001833981519152600052600b602052604060002061109634825461389d565b9055620f42406110a86002543461386a565b04926110b484346136d3565b90600080516020614001833981519152600052600c60205260406000206110dc86825461389d565b90556005546001600160a01b031692833b156102be5760009361010485926040519687938492635478424f60e11b84524660048501528760248501526000805160206140018339815191526044850152600080516020614001833981519152606485015233608485015260018060a01b03169a8b60a48501528860c485015260e48401525af1928315610ce3577f0b671089787b6d29f730bc690214e6a7e28064fef5a3cdbb9b930a22fac01dc5936111cb575b50604080519485526020850191909152830152339180606081015b0390a3600160008051602061406183398151915255602060405160018152f35b60006111d6916135a5565b85611190565b6358f8331360e11b6000526004523460245260446000fd5b82632ef6974160e11b60005260045260246000fd5b60003660031901126102be5761121d613c3e565b611225613c7a565b600080516020614001833981519152600052600d6020527ff63bf8c33116066940e0e13c302d833daba2ae522b6052c5518ac6a5827a54e654341061142957600080516020614001833981519152600052600e602052600080516020613fc1833981519152541561141357600080516020614001833981519152600052600e602052600080516020613fc18339815191525460001981019080821161073b57600080516020614001833981519152600052600e60205263ffffffff6112f883600080516020613fc183398151915261364e565b5054164210156113ff5760016113818333600052600f60205261135660406000206040519061132682613589565b600082526000805160206140018339815191526020830152836040830152600060608301523460808301526138aa565b600080516020614001833981519152600052600e602052600080516020613fc183398151915261364e565b500161138e34825461389d565b9055600080516020614001833981519152600052600b60205260406000206113b734825461389d565b90556040514681523460208201527fc30647c83f1ae8cba53f299401139cccd78519cd0cdf3937716ee01df27d509f60403392a2600160008051602061406183398151915255005b637d58ebb960e01b60005260045260246000fd5b637d58ebb960e01b600052600160045260246000fd5b600d6020527ff63bf8c33116066940e0e13c302d833daba2ae522b6052c5518ac6a5827a54e6546327500c6d60e21b600090815260049190915234602452604490fd5b346102be5760003660031901126102be57600080516020613fe1833981519152546040516001600160a01b039091168152602090f35b346102be5760003660031901126102be576114c860018060a01b03600454163314613685565b6114d0613c7a565b600160ff19600080516020614041833981519152541617600080516020614041833981519152557f62e78cea01bee320cd4e420270b5ea74000d11b0c9f74754ebdbfc544b05a2586020604051338152a1005b346102be5760003660031901126102be5761153c613f01565b600080516020613fe183398151915280546001600160a01b031981169091556000906001600160a01b03167f8be0079c531659141344cd1fd0a4f28419497f9722a3daafe3b4186f6b6457e08280a3005b346102be5760203660031901126102be576001600160a01b036115ae613477565b16600052600f60205260406000208054906115c8826135c7565b916115d660405193846135a5565b80835260208301809260005260206000206000915b83831061166a5784866040519182916020830190602084525180915260408301919060005b81811061161e575050500390f35b91935091602060a0600192608087518051151583528580851b03858201511685840152604081015160408401526060810151606084015201516080820152019401910191849392611610565b6004602060019260405161167d81613589565b855460ff811615158252858060a01b039060081c168382015284860154604082015260028601546060820152600386015460808201528152019201920191906115eb565b346102be576101203660031901126102be576024356004356116e161348d565b916116ea6134a3565b906116f36134b9565b9060a4356001600160a01b0381168082036102be5760c4359061172160018060a01b03600454163314613685565b468403610d155786600052600960205260ff60406000205416156119585780600052600a60205260ff6040600020541615611944576040516370a0823160e01b8152306004820152602081602481855afa8015610ce357839160009161190f575b50106118ad57611793828783613e7d565b80600052600b60205260406000206117ac8382546136d3565b90556005546001600160a01b031697883b156102be57604051630f5c3d0560e31b815260048101899052602481018690526001600160a01b03878116604483015260648201939093529082166084820152951660a4860181905260c4860182905260e480359087015261010480359087015296600090869061012490829084905af1918215610ce3577f7add2d08613c9e66b48e0cd9188091059a1eeeceaeed10d42cb1720aa8dec76795610cc49361189c575b506040805197885260208801949094526001600160a01b03948516938701939093529190921660608501526080840152309290819060a0820190565b60006118a7916135a5565b88611860565b60405162461bcd60e51b815260206004820152603460248201527f506f6f6c4d616e616765723a20696e73756666696369656e7420746f6b656e206044820152733130b630b731b2903337b9103a3930b739b332b960611b6064820152608490fd5b9150506020813d60201161193c575b8161192b602093836135a5565b810103126102be578290518a611782565b3d915061191e565b6305fd61ad60e01b60005260045260246000fd5b86632ef6974160e11b60005260045260246000fd5b346102be5761197b36613501565b9161199160018060a01b03600454163314613685565b6001600160a01b03166000818152600a602052604090205460ff16156119445780600052600b6020526119cb836040600020541015613a89565b80600052600b60205260406000206119e48482546136d3565b90556000805160206140018339815191528103611a385750814710611a27576000918291829182916001600160a01b03165af1611a1f61392c565b5015610cef57005b632c1d501360e11b60005260046000fd5b91906040516370a0823160e01b8152306004820152602081602481875afa8015610ce3578391600091611a8a575b5010611a755761002392613e7d565b826311745b6160e21b60005260045260246000fd5b9150506020813d602011611ab7575b81611aa6602093836135a5565b810103126102be5782905185611a66565b3d9150611a99565b346102be5760203660031901126102be57600435611ae860018060a01b03600454163314613685565b620f42408110156102be57600255005b346102be5760203660031901126102be576004356006548110156102be57611b2160209161366a565b905460405160039290921b1c6001600160a01b03168152f35b346102be5760403660031901126102be57611b53613477565b6001600160a01b03166000818152600a6020526040902054602435919060ff161561194457611b8482303384613ebd565b80600052600b6020526040600020611b9d83825461389d565b90556040519182527f4b3f81827ede20c81afbf1bb77b954afcdcae24d391d99042310cb1d9210dd5760203393a3602060405160018152f35b346102be5760003660031901126102be57602060ff60008051602061404183398151915254166040519015158152f35b346102be5760203660031901126102be576004356000526009602052602060ff604060002054166040519015158152f35b346102be5760403660031901126102be57611c50613477565b600060c0604051611c608161353b565b8281528260208201528260408201528260608201528260808201528260a0820152015260018060a01b0316600052600e60205260e0611ca5602435604060002061364e565b50604051611cb28161353b565b81549163ffffffff831692838352602083019063ffffffff8160201c168252604084019060018060a01b039060401c1681526001830154906060850191825263ffffffff6002850154936080870194855260c060ff600460038901549860a08b01998a52015416970196151587526040519788525116602087015260018060a01b0390511660408601525160608501525160808401525160a083015251151560c0820152f35b346102be5760003660031901126102be57611d71613c3e565b611d79613c7a565b60005b6006548110156120ac57611d8f8161366a565b60018060a01b0391549060031b1c169081600052600e602052604060002054156120965733600052600f602052604060002054805b611dd357506001915001611d7c565b600019810181811161073b5733600052600f60205283611df78260406000206134cf565b505460081c6001600160a01b031614611e1d575b505b801561073b576000190180611dc4565b33600052600f60205260ff611e368260406000206134cf565b5054166120905783600052600e602052604060002054600019810190811161073b57600090338252600f6020526003611e7284604085206134cf565b50015491338152600f6020526001611e8d85604084206134cf565b5001549281845b848110611ff65750611ea59161389d565b9333600052600f602052611ebd8160406000206134cf565b50600160ff1982541617905533600052600f6020526003611ee28260406000206134cf565b50015488600052600e602052611f01600161061186604060002061364e565b9055611f0e85338a613d56565b5033600052600f602052604060002054611f8d575b5080611f41611f8492600080516020614021833981519152966136d3565b6040805133815260208101969096528501939093524660608501526001600160a01b038816608085015260a084019290925260c0830191909152819060e0820190565b0390a183611e0b565b336000908152600f60205260409020805490929190600019810190811161073b5760008051602061402183398151915296611fd6611f41936107146106ff8795611f84996134cf565b33600052600f602052611fec6040600020613d0c565b9650925050611f23565b905088600052600e602052612014600261076f83604060002061364e565b90670de0b6b3a7640000820291808304670de0b6b3a7640000149015171561073b576120696120576001938c600052600e602052846107bb85604060002061364e565b94670de0b6b3a764000086049061389d565b938a600052600e60205261208660036107f384604060002061364e565b9055018290611e94565b50611e0d565b637d58ebb960e01b600052600060045260246000fd5b600160008051602061406183398151915255005b346102be5760203660031901126102be576001600160a01b036120e1613477565b16600052600c6020526020604060002054604051908152f35b60403660031901126102be576004356001600160a01b03811681036102be57610e0d60209161213460018060a01b036008541633146137c0565b6024359061396c565b346102be5760c03660031901126102be5760243560043561215c61348d565b6121646134a3565b61216c6134b9565b9360a43594612179613c3e565b468503610d155781600052600960205260ff60406000205416156123cb576001600160a01b0383166000818152600a602052604090205460ff1615611944576040516370a0823160e01b8152306004820152602081602481855afa908115610ce357600091612399575b506121f088303385613ebd565b6040516370a0823160e01b815230600482015290602082602481865afa8015610ce357600090612365575b61222592506136d3565b9681600052600b60205261223f604060002091825461389d565b905561225c620f42406122546002548a61386a565b0480986136d3565b9080600052600c602052604060002061227689825461389d565b90556005546001600160a01b031695863b156102be5761010460009283604051998a948593635478424f60e11b85528d60048601528a6024860152604485015260018060a01b038916606485015233608485015260018060a01b03169c8d60a48501528760c485015260e48401525af1918215610ce3577f24136187bad583830e5c55416af2a551e1750b2b95b0e997565fba1badf10ed3956111ab93612354575b506040805197885260208801949094526001600160a01b03948516938701939093529190921660608501526080840152339290819060a0820190565b600061235f916135a5565b88612318565b506020823d602011612391575b8161237f602093836135a5565b810103126102be57612225915161221b565b3d9150612372565b90506020813d6020116123c3575b816123b4602093836135a5565b810103126102be5751886121e3565b3d91506123a7565b50632ef6974160e11b60005260045260246000fd5b346102be5760403660031901126102be576123f9613477565b60243590612405613c3e565b61240d613c7a565b6001600160a01b03166000818152600a602052604090205490919060ff16156126615781600052600d602052604060002054811061263d576040516370a0823160e01b815230600482015290602082602481865afa918215610ce357600092612607575b5061247e90303385613ebd565b6040516370a0823160e01b815230600482015290602082602481865afa8015610ce3576000906125d3575b6124b392506136d3565b81600052600e602052604060002054156114135781600052600e60205260406000205460001981019080821161073b5783600052600e60205263ffffffff6124ff83604060002061364e565b5054164210156113ff575061256360019133600052600f60205261255060406000206040519061252e82613589565b60008252876020830152836040830152600060608301528660808301526138aa565b84600052600e602052604060002061364e565b500161257082825461389d565b905581600052600b602052604060002061258b82825461389d565b90556040519046825260208201527fc09c10a763080421c3ba4e1647ac5f55a8b14d0697dd693ddcd559e2eb82d62760403392a3600160008051602061406183398151915255005b506020823d6020116125ff575b816125ed602093836135a5565b810103126102be576124b391516124a9565b3d91506125e0565b9091506020813d602011612635575b81612623602093836135a5565b810103126102be57519061247e612471565b3d9150612616565b6000918252600d60205260408220546327500c6d60e21b8352600452602452604490fd5b506305fd61ad60e01b60005260045260246000fd5b346102be5760403660031901126102be5761268f613477565b6001600160a01b03166000908152600e60205260409020805460243591908210156102be5760e0916126c09161364e565b50805490600181015490600281015460ff6004600384015493015416926040519463ffffffff8116865263ffffffff8160201c16602087015260018060a01b039060401c1660408601526060850152608084015260a0830152151560c0820152f35b346102be5760003660031901126102be5761274860018060a01b03600454163314613685565b6000805160206140418339815191525460ff8116156127a15760ff1916600080516020614041833981519152557f5db9ee0a495bf2e6ff9c91a7834c1ba4fdd244a5e8aa4e537bd38aeae4b073aa6020604051338152a1005b638dfc202b60e01b60005260046000fd5b346102be5760003660031901126102be576006546127cf8161380c565b6000915b8083106127e85760405180610ee684826135ff565b600090815b33600052600f6020526040600020548110156129e35733600052600f60205261281a8160406000206134cf565b505460081c6001600160a01b03166128318661366a565b905460039190911b1c6001600160a01b031614612853575b6001905b016127ed565b33600052600f60205260ff61286c8260406000206134cf565b5054166129db5761287c8561366a565b905460039190911b1c6001600160a01b03166000908152600e6020526040902054600019810190811161073b5733600052600f60205260036128c28360406000206134cf565b5001549033600052600f60205260016128df8460406000206134cf565b5001548181116129d05791905b8083106128fb57505050612849565b9091946129078861366a565b905460039190911b1c6001600160a01b03166000908152600e6020526040902054600019810190811161073b5786116129bb576129b26001916129498a61366a565b848060a01b0391549060031b1c16600052600e6020526129ac61297e60026129758b604060002061364e565b5001548761386a565b6129878c61366a565b868060a01b0391549060031b1c16600052600e602052846107bb8b604060002061364e565b9061389d565b950191906128ec565b85637d58ebb960e01b60005260045260246000fd5b50505060019061284d565b60019061284d565b50926001916129f18261366a565b848060a01b0391549060031b1c169060405191612a0d8361356d565b82526020820152612a1e82856136bf565b52612a2981846136bf565b5001916127d3565b346102be57612a3f36613501565b91612a5560018060a01b036008541633146137c0565b60018060a01b03169182600052600b6020528060406000205410612ae8577f9ca7c1e047552a8048d924a5a8d3c150eb861086a72a9100e5f19d1176c1b7469183600052600b6020526040600020612aae8382546136d3565b9055612abb828286613e7d565b604080513381526001600160a01b03929092166020830152810191909152606090a2602060405160018152f35b60405162461bcd60e51b815260206004820152604960248201527f506f6f6c4d616e6167657220776974686472617745746846726f6d427269646760448201527f653a20496e73756666696369656e7420746f6b656e2062616c616e636520696e6064820152680818dbdb9d1c9858dd60ba1b608482015260a490fd5b346102be5760203660031901126102be57600435612b81613c3e565b612b89613c7a565b33600052600f602052604060002054811015610816576000338152600f602052612bb682604083206134cf565b505460081c6001600160a01b0316808252600e602052604082205460001981019391908411612dab578291338452600f6020526003612bf882604087206134cf565b50015493338152600f6020526001612c1383604084206134cf565b50015494338252600f60205260ff612c2e84604085206134cf565b505416612d9c57855b878110612cf85750956001612cad869461069e9694612c7885997f36b99ff884a288b9b46a49442e3c4c89464469fae98da480f519664f99fc4a6f9c61389d565b50338152600f602052612c8e82604083206134cf565b508460ff198254161790555033600052600f60205260406000206134cf565b500155612cbb823383613d56565b506040805133815260208101969096528501939093524660608501526001600160a01b03909216608084015260a0830191909152819060c0820190565b848352600e602052612d12600261076f836040872061364e565b670de0b6b3a7640000810290808204670de0b6b3a76400001490151715612d885790612d65612d53600193888752600e602052846107bb8560408a2061364e565b97670de0b6b3a764000089049061389d565b96868552600e602052612d8060036107f3846040892061364e565b905501612c37565b634e487b7160e01b84526011600452602484fd5b63374c934360e11b8252600482fd5b634e487b7160e01b83526011600452602483fd5b60203660031901126102be5760043567ffffffffffffffff81116102be57366023820112156102be578060040135612df6816135c7565b91612e0460405193846135a5565b818352602460e0602085019302820101903682116102be57602401915b818310612fb95783612e3e60018060a01b03600454163314613685565b60005b8151811015610023576001600160a01b036040612e5e83856136bf565b510151169081600052600e60205260406000205491600019830192831161073b577fe31e15753cd173232924147d9c429fccfb91705d3778d5eb2735a5d302ea5e81604060019483600052600e6020526004612ebd828460002061364e565b5001805460ff19168717905580612f7c575b83600052600e602052612f6a63ffffffff612eed838560002061364e565b505460201c1685600052600e60205283600020612f1263ffffffff60005416836136e0565b87600052600e60205263ffffffff8a612f2e878960002061364e565b50015491875194612f3e8661353b565b85521660208401528786840152606083015260006080830152600060a0830152600060c08301526136fa565b8151908152466020820152a201612e41565b83600052600c602052816000205484600052600e6020526002612fa2838560002061364e565b50015583600052600c602052600082812055612ecf565b60e0833603126102be5760405190612fd08261353b565b612fd9846135df565b8252612fe7602085016135df565b602083015260408401356001600160a01b03811681036102be576040830152606084013560608301526080840135608083015260a084013560a083015260c08401359081151582036102be578260209260c060e0950152815201920191612e21565b346102be5761002361305a36613501565b9161307060018060a01b03600454163314613685565b613d56565b346102be5760003660031901126102be576020600354604051908152f35b346102be5760003660031901126102be576130ac613c3e565b6130b4613c7a565b60005b6006548110156120ac576130ca8161366a565b60018060a01b0391549060031b1c169081600052600e602052604060002054156120965733600052600f602052604060002054805b61310e575060019150016130b7565b600019810181811161073b5733600052600f602052836131328260406000206134cf565b505460081c6001600160a01b031614613158575b505b801561073b5760001901806130ff565b33600052600f60205260ff6131718260406000206134cf565b50541661331a5783600052600e602052604060002054600019810190811161073b576000338152600f60205260036131ac84604084206134cf565b50015492338252600f60205260016131c782604085206134cf565b50015493845b84811061329657509183600161324361328d9461320d857f36b99ff884a288b9b46a49442e3c4c89464469fae98da480f519664f99fc4a6f9a999861389d565b5033600052600f6020526132258160406000206134cf565b508360ff1982541617905533600052600f60205260406000206134cf565b50015561325181338a613d56565b506040805133815260208101959095528401929092524660608401526001600160a01b038716608084015260a0830191909152819060c0820190565b0390a183613146565b88600052600e6020526132b2600261076f83604060002061364e565b90670de0b6b3a7640000820291808304670de0b6b3a7640000149015171561073b576132f56107c46001938c600052600e602052846107bb85604060002061364e565b948a600052600e60205261331260036107f384604060002061364e565b9055016131cd565b50613148565b346102be5760003660031901126102be57602063ffffffff60005416604051908152f35b346102be5760203660031901126102be576001600160a01b03613365613477565b16600052600d6020526020604060002054604051908152f35b346102be5760003660031901126102be576004546040516001600160a01b039091168152602090f35b346102be5760403660031901126102be576133c0613477565b6001600160a01b03166000908152600f60205260409020805460243591908210156102be5760a0916133f1916134cf565b5080549060018101549060036002820154910154916040519360ff811615158552600180871b039060081c166020850152604084015260608301526080820152f35b346102be5760003660031901126102be576005546040516001600160a01b039091168152602090f35b346102be5760003660031901126102be576020906001548152f35b600435906001600160a01b03821682036102be57565b604435906001600160a01b03821682036102be57565b606435906001600160a01b03821682036102be57565b608435906001600160a01b03821682036102be57565b80548210156134eb5760005260206000209060021b0190600090565b634e487b7160e01b600052603260045260246000fd5b60609060031901126102be576004356001600160a01b03811681036102be57906024356001600160a01b03811681036102be579060443590565b60e0810190811067ffffffffffffffff82111761355757604052565b634e487b7160e01b600052604160045260246000fd5b6040810190811067ffffffffffffffff82111761355757604052565b60a0810190811067ffffffffffffffff82111761355757604052565b90601f8019910116810190811067ffffffffffffffff82111761355757604052565b67ffffffffffffffff81116135575760051b60200190565b359063ffffffff821682036102be57565b6024359081151582036102be57565b602060408183019282815284518094520192019060005b8181106136235750505090565b825180516001600160a01b031685526020908101518186015260409094019390920191600101613616565b80548210156134eb576000526005602060002091020190600090565b6006548110156134eb57600660005260206000200190600090565b1561368c57565b60405162461bcd60e51b815260206004820152600b60248201526a37b7363ca932a630bcb2b960a91b6044820152606490fd5b80518210156134eb5760209160051b010190565b9190820391821161073b57565b9063ffffffff8091169116019063ffffffff821161073b57565b8054600160401b811015613557576137179160018201815561364e565b6137aa578151815460208085015160408087015168010000000000000000600160e01b03911b1667ffffffff000000009190921b1663ffffffff9093166001600160e01b03199092169190911791909117178155606082015160018201556080820151600282015560a0820151600382015560c0909101516004909101805460ff191691151560ff16919091179055565b565b634e487b7160e01b600052600060045260246000fd5b156137c757565b60405162461bcd60e51b815260206004820152601e60248201527f54726561737572654d616e616765722e6f6e6c795769746864726177657200006044820152606490fd5b90613816826135c7565b61382360405191826135a5565b8281528092613834601f19916135c7565b019060005b82811061384557505050565b6020906040516138548161356d565b6000815260008382015282828501015201613839565b8181029291811591840414171561073b57565b8115613887570490565b634e487b7160e01b600052601260045260246000fd5b9190820180921161073b57565b8054600160401b811015613557576138c7916001820181556134cf565b9190916137aa576080816138ec600393511515859060ff801983541691151516179055565b60208101518454610100600160a81b03191660089190911b610100600160a81b031617845560408101516001850155606081015160028501550151910155565b3d15613967573d9067ffffffffffffffff8211613557576040519161395b601f8201601f1916602001846135a5565b82523d6000602084013e565b606090565b814710613a0e57600080516020614001833981519152600052600b602052604060002061399a8382546136d3565b90556001600160a01b0316600080808085855af16139b661392c565b5015613a075760607f9ca7c1e047552a8048d924a5a8d3c150eb861086a72a9100e5f19d1176c1b74691600080516020614001833981519152936040519133835260208301526040820152a2600190565b5050600090565b60405162461bcd60e51b815260206004820152604760248201527f506f6f6c4d616e6167657220776974686472617745746846726f6d427269646760448201527f653a20696e73756666696369656e74204554482062616c616e636520696e20636064820152661bdb9d1c9858dd60ca1b608482015260a490fd5b15613a9057565b60405162461bcd60e51b81526020600482015260126024820152714e6f7420656e6f7567682062616c616e636560701b6044820152606490fd5b600654600160401b81101561355757600181016006556000600654821015613b3157600690527ff652222313e28459528d920b65115c16c04f3efc82aaedc97be59f3f377c0d3f0180546001600160a01b0319166001600160a01b03909216919091179055565b634e487b7160e01b81526032600452602490fd5b613b4d613c3e565b600080516020614001833981519152600052600b6020526040600020613b7434825461389d565b90556040513481526000805160206140018339815191527f4b3f81827ede20c81afbf1bb77b954afcdcae24d391d99042310cb1d9210dd5760203393a3600190600160008051602061406183398151915255565b6001600160a01b03168015613c2857600080516020613fe183398151915280546001600160a01b0319811683179091556001600160a01b03167f8be0079c531659141344cd1fd0a4f28419497f9722a3daafe3b4186f6b6457e0600080a3565b631e4fbdf760e01b600052600060045260246000fd5b60026000805160206140618339815191525414613c6957600260008051602061406183398151915255565b633ee5aeb560e01b60005260046000fd5b60ff6000805160206140418339815191525416613c9357565b63d93c066560e01b60005260046000fd5b91906137aa57808203613cb5575050565b600381613cd360ff83945416859060ff801983541691151516179055565b80548454610100600160a81b031916610100600160a81b0390911617845560018101546001850155600281015460028501550154910155565b80548015613d40576000190190613d2382826134cf565b6137aa576003816000809355826001820155826002820155015555565b634e487b7160e01b600052603160045260246000fd5b6001600160a01b03166000818152600a602052604090205460ff16156119445780600052600b602052613d90836040600020541015613a89565b80600052600b6020526040600020613da98482546136d3565b90556000805160206140018339815191528103613def5750814710611a27576000918291829182916001600160a01b03165af1613de461392c565b5015610cef57600190565b9291906040516370a0823160e01b8152306004820152602081602481885afa8015610ce3578391600091613e48575b5010613e3357613e2e9293613e7d565b600190565b836311745b6160e21b60005260045260246000fd5b9150506020813d602011613e75575b81613e64602093836135a5565b810103126102be5782905138613e1e565b3d9150613e57565b60405163a9059cbb60e01b60208201526001600160a01b0390921660248301526044808301939093529181526137a891613eb86064836135a5565b613f37565b6040516323b872dd60e01b60208201526001600160a01b0392831660248201529290911660448301526064808301939093529181526137a891613eb86084836135a5565b600080516020613fe1833981519152546001600160a01b03163303613f2257565b63118cdaa760e01b6000523360045260246000fd5b906000602091828151910182855af115610ce3576000513d613f8957506001600160a01b0381163b155b613f685750565b635274afe760e01b60009081526001600160a01b0391909116600452602490fd5b60011415613f61565b60ff6000805160206140818339815191525460401c1615613faf57565b631afcd79f60e31b60005260046000fdfee22fd0f090172bedb2987ffc9081056dcd23245cc377e9bafe94a3c3293defad9016d09d72d40fdae2fd8ceac6b6234c7706214fd39c1cd1e609a0528c199300000000000000000000000000eeeeeeeeeeeeeeeeeeeeeeeeeeeeeeeeeeeeeeeee7ec1c5ac03ffbc42e14868f1c00af28ca9cc9e4f02bec224142d7cc1ad64ca8cd5ed15c6e187e77e9aee88184c21f4f2182ab5827cb3b7e07fbedcd63f033009b779b17422d0df92223018b32b4d1fa46e071723d6817e2486d003becc55f00f0c57e16840df040f15088dc2f81fe391c3923bec73e23a9662efc9c229c6a00a26469706673582212205f1d9c2c1852abc83635fd5ab3f698fef8dbe65299da78748ac2584291a9c68664736f6c634300081c0033",
        "linkReferences": {}
    },
    "methodIdentifiers": {
        "BridgeFinalizeERC20(uint256,uint256,address,address,address,address,uint256,uint256,uint256)": "6ec9f812",
        "BridgeFinalizeETH(uint256,uint256,address,address,uint256,uint256,uint256)": "d0f0c58b",
        "BridgeInitiateERC20(uint256,uint256,address,address,address,uint256)": "4eb71542",
        "BridgeInitiateETH(uint256,uint256,address)": "9b442380",
        "ClaimAllReward()": "2c37388b",
        "ClaimbyID(uint256)": "34d34ef5",
        "CompletePoolAndNew((uint32,uint32,address,uint256,uint256,uint256,bool)[])": "3338562c",
        "DepositAndStakingERC20(address,uint256)": "4dfaef84",
        "DepositAndStakingETH()": "96f984e6",
        "ETHAddress()": "da228a9b",
        "FeePoolValue(address)": "54dc027e",
        "FundingPoolBalance(address)": "dbb0481f",
        "IsSupportToken(address)": "dac29568",
        "IsSupportedChainId(uint256)": "5bc65b40",
        "MinStakeAmount(address)": "1ca2f173",
        "MinTransferAmount()": "09dc480c",
        "PerFee()": "dd0c3460",
        "Pools(address,uint256)": "4663cdc8",
        "QuickSendAssertToUser(address,address,uint256)": "325e5d43",
        "SupportTokens(uint256)": "626417b5",
        "Users(address,uint256)": "13e8544e",
        "WithdrawAll()": "5a648bc5",
        "WithdrawByID(uint256)": "f62a89cf",
        "WithdrawPoolManagerAssetTo(address,address,uint256)": "6b7edb55",
        "assetBalanceMessager()": "9c014432",
        "depositErc20ToBridge(address,uint256)": "60ba33ff",
        "depositEthToBridge()": "bb8fc7a8",
        "fetchFundingPoolBalance(address)": "1f9eda8f",
        "getPool(address,uint256)": "5b5b9ea2",
        "getPoolLength(address)": "f8fcc2aa",
        "getPrincipal()": "a69bdf16",
        "getReward()": "3d18b912",
        "getUser(address)": "6f77926b",
        "getUserLength(address)": "cb4f04ad",
        "initialize(address,address,address,address)": "f8c8765e",
        "messageManager()": "10875a13",
        "owner()": "8da5cb5b",
        "pause()": "8456cb59",
        "paused()": "5c975abb",
        "periodTime()": "1d31fac0",
        "relayerAddress()": "18a7cca8",
        "renounceOwnership()": "715018a6",
        "setMinStakeAmount(address,uint256)": "cb314fab",
        "setMinTransferAmount(uint256)": "b92e6396",
        "setPerFee(uint256)": "650c2276",
        "setSupportERC20Token(address,bool)": "ab0f9e19",
        "setSupportToken(address,bool,uint32)": "e2070893",
        "setValidChainId(uint256,bool)": "d73f14e5",
        "stakingMessageNumber()": "31d98b3b",
        "transferOwnership(address)": "f2fde38b",
        "unpause()": "3f4ba83a",
        "withdrawErc20FromBridge(address,address,uint256)": "34fa7f70",
        "withdrawEthFromBridge(address,uint256)": "52662af3",
        "withdrawManager()": "ec3e9da5"
    },
    "id": 51
}